{
  "_format": "hh-sol-artifact-1",
  "contractName": "Post",
  "sourceName": "contracts/Post.sol",
  "abi": [
    {
      "stateMutability": "nonpayable",
      "type": "fallback"
    },
    {
      "inputs": [
        {
          "internalType": "string",
          "name": "_imageCID",
          "type": "string"
        },
        {
          "internalType": "string",
          "name": "_captionText",
          "type": "string"
        },
        {
          "internalType": "string",
          "name": "_author",
          "type": "string"
        },
        {
          "internalType": "string",
          "name": "_userName",
          "type": "string"
        }
      ],
      "name": "addPost",
      "outputs": [],
      "stateMutability": "nonpayable",
      "type": "function"
    },
    {
      "inputs": [],
      "name": "getAllPosts",
      "outputs": [
        {
          "components": [
            {
              "internalType": "string",
              "name": "imageCID",
              "type": "string"
            },
            {
              "internalType": "string",
              "name": "captionText",
              "type": "string"
            },
            {
              "internalType": "string",
              "name": "author",
              "type": "string"
            },
            {
              "internalType": "string",
              "name": "userName",
              "type": "string"
            }
          ],
          "internalType": "struct Post.PostDetail[]",
          "name": "",
          "type": "tuple[]"
        }
      ],
      "stateMutability": "view",
      "type": "function"
    },
    {
      "inputs": [],
      "name": "getPost",
      "outputs": [
        {
          "components": [
            {
              "internalType": "string",
              "name": "imageCID",
              "type": "string"
            },
            {
              "internalType": "string",
              "name": "captionText",
              "type": "string"
            },
            {
              "internalType": "string",
              "name": "author",
              "type": "string"
            },
            {
              "internalType": "string",
              "name": "userName",
              "type": "string"
            }
          ],
          "internalType": "struct Post.PostDetail[]",
          "name": "",
          "type": "tuple[]"
        }
      ],
      "stateMutability": "view",
      "type": "function"
    },
    {
      "stateMutability": "payable",
      "type": "receive"
    }
  ],
  "bytecode": "0x608060405234801561001057600080fd5b50610ac6806100206000396000f3fe6080604052600436106100385760003560e01c8063305611001461004e5780634c57e97a146100795780638c6838ba1461009b5761003f565b3661003f57005b34801561004b57600080fd5b50005b34801561005a57600080fd5b506100636100b0565b6040516100709190610986565b60405180910390f35b34801561008557600080fd5b50610099610094366004610893565b610357565b005b3480156100a757600080fd5b506100636104cc565b60606001805480602002602001604051908101604052809291908181526020016000905b8282101561034e578382906000526020600020906004020160405180608001604052908160008201805461010790610a3f565b80601f016020809104026020016040519081016040528092919081815260200182805461013390610a3f565b80156101805780601f1061015557610100808354040283529160200191610180565b820191906000526020600020905b81548152906001019060200180831161016357829003601f168201915b5050505050815260200160018201805461019990610a3f565b80601f01602080910402602001604051908101604052809291908181526020018280546101c590610a3f565b80156102125780601f106101e757610100808354040283529160200191610212565b820191906000526020600020905b8154815290600101906020018083116101f557829003601f168201915b5050505050815260200160028201805461022b90610a3f565b80601f016020809104026020016040519081016040528092919081815260200182805461025790610a3f565b80156102a45780601f10610279576101008083540402835291602001916102a4565b820191906000526020600020905b81548152906001019060200180831161028757829003601f168201915b505050505081526020016003820180546102bd90610a3f565b80601f01602080910402602001604051908101604052809291908181526020018280546102e990610a3f565b80156103365780601f1061030b57610100808354040283529160200191610336565b820191906000526020600020905b81548152906001019060200180831161031957829003601f168201915b505050505081525050815260200190600101906100d4565b50505050905090565b33600090815260208181526040808320815160808101835288815280840188905291820186905260608201859052805460018101825590845292829020815180519294600402909101926103b092849290910190610773565b5060208281015180516103c99260018501920190610773565b50604082015180516103e5916002840191602090910190610773565b5060608201518051610401916003840191602090910190610773565b5050604080516080810182528681526020808201879052918101859052606081018490526001805480820182556000919091528151805192945060049091027fb10e2d527612073b26eecdfd717e6a320cf44b4afac2b0732d9fcbe2b7fa0cf6019261047292849290910190610773565b50602082810151805161048b9260018501920190610773565b50604082015180516104a7916002840191602090910190610773565b50606082015180516104c3916003840191602090910190610773565b50505050505050565b33600090815260208181526040808320805482518185028101850190935280835260609492939192909184015b8282101561034e578382906000526020600020906004020160405180608001604052908160008201805461052c90610a3f565b80601f016020809104026020016040519081016040528092919081815260200182805461055890610a3f565b80156105a55780601f1061057a576101008083540402835291602001916105a5565b820191906000526020600020905b81548152906001019060200180831161058857829003601f168201915b505050505081526020016001820180546105be90610a3f565b80601f01602080910402602001604051908101604052809291908181526020018280546105ea90610a3f565b80156106375780601f1061060c57610100808354040283529160200191610637565b820191906000526020600020905b81548152906001019060200180831161061a57829003601f168201915b5050505050815260200160028201805461065090610a3f565b80601f016020809104026020016040519081016040528092919081815260200182805461067c90610a3f565b80156106c95780601f1061069e576101008083540402835291602001916106c9565b820191906000526020600020905b8154815290600101906020018083116106ac57829003601f168201915b505050505081526020016003820180546106e290610a3f565b80601f016020809104026020016040519081016040528092919081815260200182805461070e90610a3f565b801561075b5780601f106107305761010080835404028352916020019161075b565b820191906000526020600020905b81548152906001019060200180831161073e57829003601f168201915b505050505081525050815260200190600101906104f9565b82805461077f90610a3f565b90600052602060002090601f0160209004810192826107a157600085556107e7565b82601f106107ba57805160ff19168380011785556107e7565b828001600101855582156107e7579182015b828111156107e75782518255916020019190600101906107cc565b506107f39291506107f7565b5090565b5b808211156107f357600081556001016107f8565b600082601f83011261081c578081fd5b813567ffffffffffffffff8082111561083757610837610a7a565b604051601f8301601f19908116603f0116810190828211818310171561085f5761085f610a7a565b81604052838152866020858801011115610877578485fd5b8360208701602083013792830160200193909352509392505050565b600080600080608085870312156108a8578384fd5b843567ffffffffffffffff808211156108bf578586fd5b6108cb8883890161080c565b955060208701359150808211156108e0578485fd5b6108ec8883890161080c565b94506040870135915080821115610901578384fd5b61090d8883890161080c565b93506060870135915080821115610922578283fd5b5061092f8782880161080c565b91505092959194509250565b60008151808452815b8181101561096057602081850181015186830182015201610944565b818111156109715782602083870101525b50601f01601f19169290920160200192915050565b60208082528251828201819052600091906040908185019080840286018301878501865b83811015610a3157603f198984030185528151608081518186526109d08287018261093b565b915050888201518582038a8701526109e8828261093b565b9150508782015185820389870152610a00828261093b565b91505060608083015192508582038187015250610a1d818361093b565b9689019694505050908601906001016109aa565b509098975050505050505050565b600281046001821680610a5357607f821691505b60208210811415610a7457634e487b7160e01b600052602260045260246000fd5b50919050565b634e487b7160e01b600052604160045260246000fdfea264697066735822122012236b8de3f8e824757c61b4259cbb07db2ef804c170c0f3a35b694aece94df064736f6c63430008010033",
  "linkReferences": {},
  "deployedLinkReferences": {}
}